:100000000C94D0020C94EF020C94EF020C94160E98
:100010000C94EF020C94EF020C94EF020C94EF029C
:100020000C94EF020C94EF020C94EF020C94EF028C
:100030000C94EF020C94EF020C94EF020C94EF027C
:100040000C94EF020C94EF020C94EF020C94EF026C
:100050000C94EF020C94EF020C94EF020C94CC0D74
:100060000C94EF020C94EF020C94EF020C94EF024C
:100070000C94EF020C94EF020C94EF020C94EF023C
:100080000C94EF020C94EF020C94EF020C94EF022C
:100090000C94EF020C94EF020C94EF020C94EF021C
:1000A0000C94EF020C94EF020C94EF020C94EF020C
:1000B0000C94EF020C94EF020C94EF020C94EF02FC
:1000C0000C94EF020C94EF020C94EF020C94EF02EC
:1000D0000C94EF020C94EF020C94EF020C94EF02DC
:1000E0000C94EF020C94EF020C94EF020C94EF02CC
:1000F0000C94EF020C94EF020C94EF020C94EF02BC
:100100000C94EF020C94EF020C94EF020C94EF02AB
:100110000C94EF020C94EF020C94EF020C94EF029B
:100120000101637801110128633203C0F80002C3A2
:100130000402C40502D01D02B30002B58B013802CF
:100140003A0202360002B09F05F01212121201208C
:10015000012900000000000000260029002C002FCB
:100160000032000000000000000000000050454583
:10017000CB4142D341524541C444524541C4524E01
:10018000C4003EBD3CBEBEBD3CBDBC21BD000000A8
:100190000000240000002A002D0030003300000081
:1001A000000000000000000000000000250000002A
:1001B0002B002E0031003400000000000000000081
:1001C00000000505050505050505020202020202FB
:1001D00004040707070704040404040406060606CB
:1001E00006060606020201020408102040802010C4
:1001F00001040802020101020420040810204080CA
:100200000102040810204080408054696E794261E8
:1002100073696320506C75732076302E3135000081
:100220000000090A0B0000030700000000000000A6
:1002300000000200000000000000000000000000BC
:10024000000405484947C848C94C4FD74CCF002047
:100250006D566F6C74730020454550726F6D20624F
:100260007974657320617661696C2E00535445D0B2
:100270000054CF004C4953D44C4F41C44E45D75243
:1002800055CE534156C54E4558D44C45D449C64722
:100290004F54CF474F5355C25245545552CE5245F5
:1002A000CD464FD2494E5055D45052494ED4504F5E
:1002B0004BC553544FD04259C546494C45D34D4583
:1002C000CD424154D4434CD34D534156C54D4C4F70
:1002D00041C4574149D4BFA74157524954C5445717
:1002E000524954C544454C41D9454EC452534545E5
:1002F000C443484149CE4543484149CE454C495302
:10030000D4454C4F41C445464F524D41D4455341CD
:1003100056C500627265616B2100536F727279215C
:1003200000576861743F2000486F773F00556E6941
:100330006D706C656D656E746564004F4B00204593
:100340004550726F6D20627974657320746F7461AB
:100350006C2E0020627974657320667265652E00CC
:100360000000000000000000065F06000007030018
:10037000070300247E247E2400242B6A12000063DD
:10038000130864630036495620500000070300003C
:1003900000003E4100000000413E000000083E1CFD
:1003A0003E080008083E08080000E0600000000861
:1003B000080808080000606000000020100804021F
:1003C000003E5149453E0000427F400000625149D5
:1003D0004946002249494936001814127F10002F5F
:1003E00049494931003C4A49493000017109050336
:1003F00000364949493600064949291E00006C6CFF
:1004000000000000EC6C00000008142241000024F1
:100410002424242400004122140800020159090662
:10042000003E415D551E007E1111117E007F49493D
:100430004936003E41414122007F4141413E007F1B
:1004400049494941007F09090901003E4149497A6A
:10045000007F0808087F0000417F410000304040D5
:10046000403F007F08142241007F40404040007F11
:100470000204027F007F0204087F003E4141413EAA
:10048000007F09090906003E4151215E007F0909EC
:1004900019660026494949320001017F0101003FE8
:1004A0004040403F001F2040201F003F403C403F55
:1004B00000631408146300070870080700714945B9
:1004C000430000007F4141000002040810200000AA
:1004D00041417F000004020102040080808080808E
:1004E000000003070000002054545478007F444467
:1004F000443800384444442800384444447F003899
:100500005454540800087E0909000018A4A4A47CCF
:10051000007F040478000000007D400000408084DB
:100520007D00007F102844000000007F4000007C18
:1005300004180478007C04047800003844444438EB
:1005400000FC444444380038444444FC00447844AB
:10055000040800085454542000043E442400003C85
:1005600040207C00001C2040201C003C6030603C8F
:10057000006C10106C00009CA0603C00006454549F
:100580004C0000083E4141000000007700000000E0
:1005900041413E08000201020100003C2623263CA6
:1005A00011241FBECFEFD1E4DEBFCDBF12E0A0E02B
:1005B000B2E0E6ECF5E300E00BBF02C007900D925D
:1005C000AE3EB107D9F724E3AEEEB2E001C01D9212
:1005D000A034B207E1F70E94250E0C94E11A0C94A6
:1005E00000008150823108F058C0E82FF0E0E5505B
:1005F000FD4F0C94D9171B031F030D03130317039F
:100600004D03220328032C03320336033A0340032D
:1006100044034D0348034E035203809180008F77BB
:10062000809380000895809180008F7DF9CF809124
:100630008000877FF5CF84B58F7784BD089584B51A
:100640008F7DFBCF8091B0008F778093B0000895AD
:100650008091B0008F7DF9CF809190008F7780934B
:1006600090000895809190008F7DF9CF8091900047
:10067000877FF5CF8091A0008F778093A0000895A9
:100680008091A0008F7DF9CF8091A000877FF5CF6A
:10069000809120018F77809320010895809120011F
:1006A0008F7DF9CF80912001877FF5CF1F93CF9366
:1006B000DF93282F30E0F901E15EFD4F8491F901CD
:1006C000EA51FE4FD491F901EE53FE4FC491CC2371
:1006D000A9F0162F81110E94F102EC2FF0E0EE0F2D
:1006E000FF1FE855FE4FA591B4918FB7F894EC9198
:1006F000111108C0D095DE23DC938FBFDF91CF911D
:100700001F910895DE2BF8CFCF93DF9390E0FC018B
:10071000EA51FE4F24918E539E4FFC018491882311
:10072000C9F090E0880F991FFC01E257FE4FA59198
:10073000B491FC01E855FE4FC591D49161110DC0F3
:100740009FB7F8948C91209582238C9388812823DD
:1007500028839FBFDF91CF910895623051F49FB7F6
:10076000F8943C91822F809583238C93E8812E2BE3
:10077000EFCF8FB7F894EC912E2B2C938FBFEACF4D
:100780003FB7F89480910F0390911003A09111034B
:10079000B091120326B5A89B05C02F3F19F0019612
:1007A000A11DB11D3FBFBA2FA92F982F8827BC01CB
:1007B000CD01620F711D811D911D42E0660F771FF3
:1007C000881F991F4A95D1F708958F929F92AF92F3
:1007D000BF92CF92DF92EF92FF926B017C010E9459
:1007E000C0034B015C01C114D104E104F104B9F070
:1007F0000E94C003681979098A099B09683E734001
:100800008105910580F321E0C21AD108E108F108C1
:1008100088EE880E83E0981EA11CB11CE4CFFF90E7
:10082000EF90DF90CF90BF90AF909F908F90089502
:1008300080EC80937C00EAE7F0E087E88083109208
:100840007B0084E58093770087E9808380818064E2
:1008500080830895E0913C03F0913D03329690E04F
:1008600081918A30A9F08917D1F3823269F08732F9
:1008700069F09111F5CF2FE9280F2A3188F7DF01B0
:10088000119780528C93ECCF92E2EACF97E2E8CFB7
:10089000089580913E3390913F3340913C035091B5
:1008A0003D0360912E0370912F034817590751F0B3
:1008B000FC01208131812617370720F42281820F25
:1008C000911DF3CF0895E0913003F09131032E2F65
:1008D0009F2F81918032D9F38930C9F3209330035F
:1008E0009093310308950E946304E0913003F091E6
:1008F000310390E080E05AE03E2F2F2F419160EDD0
:10090000640F6A30A8F4893969E1960738F03093AA
:100910003003209331038FEF9FEF0895589F90018C
:10092000599F300D1124C901C097840F911DE4CF48
:1009300030933003209331030895CF93DF93EC017C
:1009400010922B0390E080E0FE012491222371F1AC
:100950004091300350913103FA01E80FF91F2081D3
:10096000FE013491231303C001962196EDCF6491CB
:1009700030E020583F4F6217130659F40196840F58
:10098000951F9093310380933003DF91CF910C94A6
:100990006304FE018491219687FFFBCF80912B0396
:1009A0008F5F80932B030E946304CCCFDF91CF91A4
:1009B0000895CF93DF931F92CDB7DEB789838981E6
:1009C0008EBD00000DB407FEFDCF8EB50F90DF91F8
:1009D000CF910895982FFB01DA018770907F903DA9
:1009E00029F128F4903A41F0903BA1F00895903E0F
:1009F00049F1903F99F10895232B49F424E330E025
:100A00002D933C9323E330E031832083089522E348
:100A100030E0F6CF232B39F425E230E02D933C93E0
:100A200024E230E0F1CF23E230E0F8CF232B39F499
:100A30002BE230E02D933C932AE230E0E5CF29E22F
:100A400030E0F8CF232B39F42EE230E02D933C93A5
:100A50002DE230E0D9CF2CE230E0F8CF232B39F46F
:100A600021E330E02D933C9320E330E0CDCF2FE223
:100A700030E0F8CF1F93CF93DF9300D000D0CDB7F5
:100A8000DEB7162F30E020E0AE014F5F5F4FBE01B2
:100A90006D5F7F4F0E94EA04E981FA81111115C050
:100AA000408121E030E0B90102C0660F771F8A95CE
:100AB000E2F7CB018095842380830F900F900F90F5
:100AC0000F90DF91CF911F910895908121E030E048
:100AD00001C0220F8A95EAF7892F822BEDCF1F9351
:100AE000CF93DF93C72FD82F60E083ED0E943A05A4
:100AF00085E00E94D90480E00E94D904182F61E0AB
:100B000083ED0E943A0510FD3BC060E083ED0E943A
:100B10003A0586E00E94D90461E083ED0E943A051F
:100B200060E083ED0E943A0580E20E94D9048D2F97
:100B30000E94D9048C2F0E94D90480E00E94D9041D
:100B400061E083ED0E943A0560E083ED0E943A0582
:100B5000C8E7D0E011E010FF16C085E00E94D9047C
:100B600080E00E94D904182F61E070E080E090E0FE
:100B70000E94E503219779F761E083ED0E943A0531
:100B800090E080E006C061E083ED0E943A0581E0DC
:100B900090E0DF91CF911F9108950F931F93CF9312
:100BA000DF93662339F090E080E0DF91CF911F91D1
:100BB0000F910895182FEB0160E083ED0E943A0534
:100BC00085E00E94D90480E00E94D904082F61E0EA
:100BD00083ED0E943A0500FDE6CF60E083ED0E94C0
:100BE0003A0581E00E94D90480E00E94D90461E0C6
:100BF00083ED0E943A0560E083ED0E943A0586E0AD
:100C00000E94D90461E083ED0E943A0560E083ED23
:100C10000E943A0582E00E94D904812F0E94D904E3
:100C20008D2F0E94D9048C2F0E94D904C0E4D3E3F5
:100C300089910E94D90484E3C034D807C9F761E0E0
:100C400083ED0E943A0560E083ED0E943A05C4E11D
:100C5000D0E011E010FF14C085E00E94D90480E0CC
:100C60000E94D904182F61E070E080E090E00E94BB
:100C7000E503219779F761E083ED0E943A0593CF70
:100C800061E083ED0E943A0581E090E08ECF1F93F2
:100C9000CF93DF93182FC091150360E08C2F0E9433
:100CA0003A05D091140360E08D2F0E943A05812F00
:100CB0000E94D90461E08D2F0E943A0561E08C2FDB
:100CC000DF91CF911F910C943A05DF92EF92FF9242
:100CD0000F931F93CF93DF93D82EE92E8B01F090C3
:100CE000150360E08F2D0E943A05CD2DDE2D0C0FEF
:100CF0001D1F89910E94D904C017D107D1F761E067
:100D00008F2DDF91CF911F910F91FF90EF90DF908A
:100D10000C943A05CF92DF92EF92FF920F931F93BC
:100D2000CF93DF9300D000D0CDB7DEB78C01E62E95
:100D30006A01F22E8AE20E944706198223E030E01F
:100D4000C801B9010E94C5176A831B82C8018C0DB6
:100D50009D1D0197B9010E94C5176C8364E070E086
:100D6000CE0101960E9465068BE20E944706198219
:100D7000EA821B82FA94FE0CFC8264E070E0CE01F1
:100D800001960E9465068CE20E9447060F900F9024
:100D90000F900F90DF91CF911F910F91FF90EF90E7
:100DA000DF90CF9008951F93CF93DF9300D000D0B2
:100DB000CDB7DEB7162F30E020E0AE014F5F5F4FBA
:100DC000BE016D5F7F4F0E94EA04EB81FC81113010
:100DD00029F1408121E030E0B90102C0660F771FA0
:100DE0008A95E2F7CB01123059F0809584238083F5
:100DF0000F900F900F900F90DF91CF911F9108955A
:100E0000942F982B9083E981FA819081982B90837D
:100E1000EB81FC81908180958923E9CF908121E04D
:100E200030E001C0220F8A95EAF7892F822BDFCFAD
:100E30007F928F929F92AF92BF92CF92DF92EF926A
:100E4000FF920F931F93CF93DF9300D000D0CDB7C5
:100E5000DEB704EC12E062E0F80181918F010E949C
:100E6000D306F2E00A3C1F07B1F78AE0E8EFF2E0B0
:100E7000AEEEB2E001900D928A95E1F798EFE92E7F
:100E800092E0F92E2AEBA22E22E0B22E8701F80181
:100E90001082F50171905F0161E0872D0E94D306F9
:100EA00060E0872D0E943A0584EC882E82E0982E1F
:100EB000D12CC12C21E030E0AE014D5F5F4FBE016F
:100EC0006F5F7F4FF40181914F010E94EA04EB8133
:100ED000FC81208130E002C0359527958A95E2F7A4
:100EE00020FD0BC021E030E00C2C01C0220F0A9441
:100EF000EAF7F8018081822B8083FFEFCF1ADF0AA7
:100F000086E0C816D104B1F661E0872D0E943A054B
:100F100060E0872D0E94D3060F5F1F4FE3E0023091
:100F20001E0709F0B4CF7091F802172F1870707176
:100F3000AEEEB2E030E020E080E00AE0F701D190D0
:100F40007F0150E040E061E0C22E9D2D9623961374
:100F50001DC09C919623D1F4C11004C09DEF940F45
:100F60009230A0F088E792E0111106C080E092E094
:100F7000711102C08CE392E0049FF001059FF00D17
:100F80001124E80FF91FE20FF31F8081660F4F5FF6
:100F90005F4F46305105C9F62F5F3F4F11962A30FB
:100FA000310561F60F900F900F900F90DF91CF9168
:100FB0001F910F91FF90EF90DF90CF90BF90AF9077
:100FC0009F908F907F9008953F924F925F926F9283
:100FD0007F928F929F92AF92BF92CF92DF92EF92C9
:100FE000FF920F931F93CF93DF93CDB7DEB7CC550E
:100FF000D1090FB6F894DEBF0FBECDBF7C014B0107
:101000006A01FA0101900020E9F731978F01041B72
:10101000150B2CE0209FC001219F900D11248E0DF7
:101020009F1D813891406CF080E891E08E199F09F6
:101030006CE070E00E94C5178B018FEF9FEF77FD8A
:1010400081C0560186E0382E3E0181E4680E711C95
:10105000C5018C199D09801791070CF071C0F5012D
:1010600081915F018052990B389EB001399E700DBD
:101070001124605A7C4F46E050E0CE018B5A9F4FBE
:101080000E9443176696AFAD669767963FAD679728
:1010900068967FAD689769964FAD69976A965FAD20
:1010A0006A976B966FAD6B97FE01319681E02F01C9
:1010B000982F9A2320E009F02CEF932F982309F41E
:1010C0003BC0236090EEB82FB72309F09F612483C3
:1010D000208395839183982F942320E009F02CEFAF
:1010E000982F952359F1236090EEB82FB62309F07D
:1010F0009F6126832283978393833896880FE61512
:10110000F705B1F6F0E8EF16F1E0FF0664F420EA27
:101110008216910444F420E130E04CE050E0B40148
:10112000C7010E948A0660E470E0C2010E94650661
:101130008CE0E80EF11C8CCF90E0C5CF90E0D5CFCD
:1011400090E080E0C45ADF4F0FB6F894DEBF0FBEC8
:10115000CDBFDF91CF911F910F91FF90EF90DF9066
:10116000CF90BF90AF909F908F907F906F905F9047
:101170004F903F9008951F93CF93DF931F92CDB769
:10118000DEB78091080390910903099724F010922B
:10119000090310920803609108036F5F693008F03B
:1011A00060E080E1689FB00111244AEC52E090E0D9
:1011B00080E00E94E407809104039091050340962B
:1011C0006091B4027091B5020E94C517182F8093E8
:1011D00004039093050387E30E944706198361E0A7
:1011E00070E0CE0101960E94650687E090E0909342
:1011F0000703809306030F90DF91CF911F9108950D
:10120000EF92FF920F931F93CF93DF9300D000D004
:10121000CDB7DEB780E2E82E81E0F82EC701019657
:10122000F7010491033659F4F2E0EF0EF11CFC01D2
:10123000649170E090E080E00E94E503EFCF00232E
:10124000C1F0F2E0EF0EF11CFC0184910E94470610
:10125000015021F310E0A801B701CE0101960E94D0
:101260004317E00EF11EB801CE0101960E946506FB
:10127000D5CF0F900F900F900F90DF91CF911F91CE
:101280000F91FF90EF900895DF92EF92FF920F93EE
:101290001F93CF93DF93CDB7DEB7C058D1090FB6F8
:1012A000F894DEBF0FBECDBF20EA30E040E851E049
:1012B00070E060E090E080E00E948A0600EA10E0C2
:1012C00080E8D82ECE0101967C01F7018D2D119278
:1012D0008A95E9F760E870E0C7010E946506015051
:1012E000110999F7C058DF4F0FB6F894DEBF0FBE53
:1012F000CDBFDF91CF911F910F91FF90EF90DF90C5
:101300000895CF93DF931F92CDB7DEB70E944409B3
:10131000109205031092040387E30E944706198286
:1013200061E070E0CE0101960E9465061092030311
:101330001092020310920703109206031092090301
:10134000109208030F90DF91CF910895CF92DF9212
:10135000EF92FF921F93CF93DF9300D01F92CDB7F0
:10136000DEB72091220330912303232B61F5182F40
:1013700080912903813071F4809127039091280393
:101380009C012F5F3F4F3093280320932703612F49
:101390000E94541780912903823009F045C0809142
:1013A000160390911703FC01E05CFC4C111116C070
:1013B0001082609118037091190380911A03909123
:1013C0001B030E94CD050F900F900F90DF91CF91DE
:1013D0001F91FF90EF90DF90CF900895019690932A
:1013E00017038093160310838115914061F7C09015
:1013F0001803D0901903E0901A03F0901B03C70163
:10140000B6010E94CD053FEFD31AE30AF30AC0925A
:101410001803D0921903E0921A03F0921B03109262
:10142000170310921603CFCF8111CDCF1A3009F4D4
:1014300044C01D3041F2CE0101967C0183E0F701EA
:1014400011928A95E9F71F921F938BEE92E09F937A
:101450008F931F9282E08F93FF92EF920E94FD176D
:10146000609108037091090384E0660F771F8A95E5
:10147000E1F78091020390910303A7012CE0FC01A6
:101480002E9FC0012F9F900D11240E94E407809190
:1014900002039091030301960FB6F894DEBF0FBECE
:1014A000CDBF8032910534F59093030380930203FE
:1014B000809106039091070317C0809106039091D5
:1014C0000703019690930703809306032091080376
:1014D000309109032F5F3F4F309309032093080396
:1014E000109203031092020308970CF46CCF0E9431
:1014F000BB0869CF10920303109202038091060388
:1015000090910703019690930703809306038091BF
:1015100008039091090301969093090380930803AF
:10152000C7CF8AE00E94A6098DE00C94A609CF924D
:10153000DF92EF92FF92CF93DF930E94A6098091F2
:101540003C0390913D0302969093310380933003C6
:10155000DCE080912403813059F0823009F44FC0DF
:101560000E9418078823E1F3082E000C990B10C085
:1015700080912703909128039C012F5F3F4F309368
:101580002803209327030E944C17882309F468C07E
:101590008A3009F47BC08D3009F478C02091300383
:1015A00030913103823009F080C080913C039091EA
:1015B0003D032817390769F221503109309331036F
:1015C000209330038091020390910303019790933D
:1015D000030380930203609108037091090324E0E0
:1015E000660F771F2A95E1F749EE52E09C01D29FE2
:1015F000C001D39F900D11240E94E407AACFC09090
:101600001803D0901903E0901A03F0901B03D70140
:10161000C6010196A11DB11D809318039093190373
:10162000A0931A03B0931B0360E083ED0E943A0578
:1016300083E00E94D9048E2D0E94D9048D2D0E9432
:10164000D9048C2D0E94D90480E00E94D904C82FAF
:1016500061E083ED0E943A05CC2311F08C2F98CFE6
:1016600010922403109223031092220380912503E9
:1016700090912603892B51F0109226031092250396
:1016800081E090E090933303809332030E94910AAB
:10169000E0913003F09131038AE08083DF91CF91B4
:1016A000FF90EF90DF90CF900895409136035091D6
:1016B0003703425051092417350721F488E00E946E
:1016C000A60947CFF9018193F0933103E0933003EA
:1016D000F6CFCF93DF93EC01FE012491222329F072
:1016E000219684910E94A609F7CFDF91CF910895AA
:1016F0000E94690B0C94910A0F931F93CF93DF9371
:10170000EC0197FF06C0D195C195D1098DE20E94E9
:10171000A609E0913A03F0913B0310E000E02AE0D3
:1017200030E0CE01B9010E94C517805D8293EB01C4
:101730000F5F1F4F1C161D06A4F3F0933B03E093AD
:101740003A03E0913A03F0913B038191F0933B031C
:10175000E0933A030E94A6090150110991F7DF9125
:10176000CF911F910F910895E0912C03F0912D03DB
:10177000808191813396F0932D03E0932C030E9496
:101780007C0B80E20E94A609E0912C03F0912D03CE
:1017900080818A3061F00E94A60980912C0390918B
:1017A0002D03019690932D0380932C03EDCF31965A
:1017B000F0932D03E0932C030C94910ACF92DF92C7
:1017C000EF92FF920F931F93CF93DF9301E010E00E
:1017D0000E946304A0913003B09131038C918D324B
:1017E00049F41196B0933103A093300311950195FC
:1017F0001109EECF803341F41196B0933103A093D9
:101800003003D12CC12C9EC09FEC980F9930C0F4AE
:10181000D12CC12C2AE02C9DC0012D9D900D1124AE
:10182000CD90C80ED92ED11C80E3C81AD1088C9156
:1018300080538A3080F3B0933103A093300382C089
:101840009FEB980F9A3108F046C011969C91119722
:1018500091549A3180F090E081549048880F991FFC
:101860002091360330913703820F931FFC01C08013
:10187000D1801196E0CF8DE691E00E949D04F0901A
:101880002B03F5E0FF16F1F1E0913003F091310305
:1018900080818832B9F53196F0933103E0933003BB
:1018A0000E94730DEC01E0913003F09131038081CF
:1018B000893241F53196F0933103E093300382E0B1
:1018C000F81609F456C08F1508F1FF20B9F1E1E0D0
:1018D000FE1609F447C0E0913003F0913103808196
:1018E000883281F43196F0933103E09330030E9403
:1018F000730D6C01A0913003B09131038C9189324A
:1019000009F4B7CF81E080932A037BCFF3E0FF1681
:1019100009F456C084E0F812DECF6E01DD0FEE0848
:10192000FF08C114D104E104F10461F00E94EB1638
:10193000A70196010E9462176B0104C0C25CDC4FD4
:10194000C880D12C0C9DC0010D9D900D1C9D900D4B
:101950001124DF91CF911F910F91FF90EF90DF90B5
:10196000CF9008956E01D7FFEDCFD194C194D108E7
:10197000E9CFFC2E60E08C2F0E948403EDE0EC1791
:1019800010F4F2EFFF0E90917B008F2D8870977FFF
:10199000892B80937B008F2D8770806480937C00DF
:1019A00080917A00806480937A0080917A0086FD2D
:1019B000FCCF80917800C0907900DC2CC82EC2CF7B
:1019C00060E08C2F0E948403DD27FE01E15EFD4F65
:1019D0008491FE01EA51FE4FF490CE53DE4FFE019A
:1019E000C491CC2309F40DCF81110E94F102EC2F98
:1019F000F0E0EE0FFF1FED5AFE4FA591B491EC9170
:101A0000EF2191E080E009F490E0C92ED82E9ACF22
:101A10001F93CF93DF930E94DE0BEC010E946304BF
:101A200011E0E0913003F091310380818A3281F43A
:101A30003196F0933103E09330030E94DE0B9E0158
:101A4000289FE001299FD00D389FD00D1124E9CFA8
:101A50008F3291F43196F0933103E09330030E947A
:101A6000DE0BBC01892B29F0CE010E94C517EB01CA
:101A7000D8CF10932A03D5CFCE01DF91CF911F91FC
:101A80000895CF93DF93E0913003F091310380818B
:101A90008D32B1F08B32A1F00E94080DEC01E09183
:101AA0003003F091310380818D3269F43196F093E7
:101AB0003103E09330030E94080DC81BD90BEFCF10
:101AC000D0E0C0E0ECCF8B3251F43196F09331038B
:101AD000E09330030E94080DC80FD91FE0CFCE015C
:101AE000DF91CF910895CF93DF930E94410DEC01D8
:101AF00080912A03811129C082E891E00E949D040F
:101B0000E0912B03E73009F1E73008F042C0F0E044
:101B1000E457F24F0C94D917930D9C0DA90DB10DFC
:101B2000B90DC10D9C0D0E94410D31E020E0C81798
:101B3000D9074CF430E007C00E94410D31E020E0AD
:101B4000C817D907B9F3C32FD22FCE01DF91CF9198
:101B500008950E94410D31E020E08C179D079CF311
:101B6000E9CF0E94410D31E020E0C817D90711F7F5
:101B7000EACF0E94410D31E020E08C179D071CF751
:101B8000D9CF0E94410D31E020E0C817D907DCF21F
:101B9000D1CFD0E0C0E0D9CF1F920F920FB60F92F5
:101BA00011242F933F938F939F93AF93BF93809173
:101BB0000B0390910C03A0910D03B0910E03309193
:101BC0000A0323E0230F2D3758F50196A11DB11DFF
:101BD00020930A0380930B0390930C03A0930D03AF
:101BE000B0930E0380910F0390911003A091110305
:101BF000B09112030196A11DB11D80930F03909324
:101C00001003A0931103B0931203BF91AF919F9162
:101C10008F913F912F910F900FBE0F901F901895AD
:101C200026E8230F0296A11DB11DD2CF1F920F925D
:101C30000FB60F9211248F9383B78E7F83BF8F913E
:101C40000F900FBE0F901F901895CF93DF9300D089
:101C50001F92CDB7DEB7789484B5826084BD84B519
:101C6000816084BD85B5826085BD85B5816085BD97
:101C700080916E00816080936E001092810080914F
:101C800081008260809381008091810081608093D7
:101C90008100809180008160809380008091B100FC
:101CA00084608093B1008091B00081608093B00027
:101CB0008091910082608093910080919100816079
:101CC000809391008091900081608093900080913A
:101CD000A10082608093A1008091A1008160809327
:101CE000A1008091A00081608093A00080912101DB
:101CF0008260809321018091210181608093210184
:101D00008091200181608093200180917A0084601D
:101D100080937A0080917A00826080937A0080912B
:101D20007A00816080937A0080917A008068809345
:101D30007A001092C10062E082E00E94840382E097
:101D4000809339010E94180487EE8093150386ED75
:101D50008093140382EA8093130361E080EB0E9476
:101D60003A0561E080EB0E94D30680E58CBD81E0FE
:101D70008DBD8DB58EB561E081EB0E94D30661E02B
:101D800082EB0E94D3061091150361E0812F0E941F
:101D9000D30661E083ED0E94D30661E0812F0E94AB
:101DA0003A0561E0809114030E94D3061091130359
:101DB00061E0812F0E94D30661E0812F0E943A05E5
:101DC00062E370E080E090E00E94E50360E0812F34
:101DD0000E943A0565E070E080E090E00E94E50333
:101DE00061E0812F0E943A0566E970E080E090E0B2
:101DF0000E94E5030E9400090E9444090E944409D0
:101E000083E30E944706198280E98A8380E18B83FD
:101E100063E070E0CE0101960E94650680E990E0E3
:101E20009093B5028093B4028AE092E00E94780B0E
:101E3000AA24A394B12CAEE32A2EA3E03A2EBEE34B
:101E40004B2EB3E35B2E30923F3320923E333092E1
:101E50003D0320923C0350923B0340923A032CE016
:101E600033E3309339032093380386ED92E3909364
:101E700037038093360388E99FE20E947C0B83E559
:101E800093E00E94780B80E090E10E947C0B8EE34F
:101E900093E00E94780B04C0F0931F03E0931E03AD
:101EA000109235031092340350923B0340923A0350
:101EB0008BE393E00E94780BFEE56F2E8091320356
:101EC00090913303892B31F1109233031092320336
:101ED00080913E3390913F33909335038093340348
:101EE000809134039091350320913C0330913D0360
:101EF00082179307A9F203969093310380933003DE
:101F0000D8C0B0933D03A0933C03F0923103E0921C
:101F10003003D4CF8EE30E94970A0E942A040091D6
:101F20003C0310913D03780132E0E30EF11CD70130
:101F3000FD0131968C918A30E9F5B0933103A0937D
:101F400030038091360390913703BF019C01FB0160
:101F50004291BF01F90142939F01E616F706B9F7D6
:101F600097012A1B3B0B21503109820F931F90933D
:101F70003103809330030E9473046C0190932F030C
:101F800080932E030E946304C114D10409F488C015
:101F9000FFEFCF16DF0609F47DC0809030039090EC
:101FA000310380E0F401E80FF11D90819A3021F0B7
:101FB0008F5FF8CFDF01BCCFE4E07E2E780E740196
:101FC00023E0E21AF108F0923103E0923003D701E6
:101FD000CD92DC92F401319770820E944904FC0199
:101FE00008171907D1F080819181C816D906A9F484
:101FF00082819F01280F311D081B1109AF010417B1
:10200000150739F0D9018D919D01DA018D93AD014C
:10201000F6CF10933D0300933C03D4018C918A309A
:1020200009F44CCFA0913C03B0913D03772009F413
:1020300068CF97012A1B3B0B872D90E028173907A3
:1020400008F4C9019D01280F391FA9016D016627F8
:1020500077276E1B7F0B8601060F171F012B61F47C
:10206000D701AF01480F591FE417F50761F4781A3B
:10207000E80EF91ED901DACFD6011E916D01DA0101
:102080001E93AD01E8CF6D916193EECFF0931F03E6
:10209000E0931E0388E293E03AC68AE193E0F9CE2A
:1020A000F0923103E0923003F80182818A3009F422
:1020B00005CF0E941807882319F083E193E0E9CE49
:1020C00084E792E00E949D0410912B03173208F0E0
:1020D00048C2E12FF0E0E159FF4E0C94D917F713F5
:1020E0008516A110680F8516EF128813B210C6105E
:1020F000BD120B13B112ED1198113314CA13DD1078
:10210000EA108516AB14DB14FA14FD1444156F1590
:102110003314B1127415B2159610DD108A1681169B
:1021200080112611841147115F11881310922A0320
:102130000E94730DBC01990F880B990B0E94E50357
:1021400010C2E0913003F091310380818A3009F0B0
:102150008BC180913E3390913F3390933D038093A8
:102160003C03ACCE10922A030E94730D20912A03E7
:10217000211190CFE0913003F091310320812A307A
:1021800009F488CF892B09F094CFEBC110922A0370
:102190000E94730D90932F0380932E0380912A0346
:1021A000811178CFE0913003F091310380818A3042
:1021B00009F070CF0E9449048FCEE0913003F09176
:1021C000310380818A3009F04FC180913C039091A6
:1021D0003D0382CE0E94810988E20E94470680E189
:1021E0000E94470610927A0052985A9AEA98809173
:1021F00069008F7C80936900E29AEA9A83B7817FB5
:10220000846083BF83B7816083BF88950E94000983
:1022100083E30E944706198280E98A8380E18B83E9
:1022200063E070E0CE0101960E94650680E990E0CF
:102230009093B5028093B4020E94180480E090E06D
:10224000892B09F400CE0E940000F5CD10E000E0DB
:10225000C8010E944C17282F30E02115310509F4E0
:1022600080C1A901405251094F35510538F02A303B
:10227000310521F02D30310509F08FE30E94A609C8
:102280000F5F1F4F0115F0E11F0711F76AC110E042
:1022900000E0C8018F739927809719F48EE20E949D
:1022A000A60960E0C8010E9454170F5F1F4F0F3F3F
:1022B0002FE0120771F78AE00E94A60952C181E05F
:1022C0008093290310922803109227030E94490447
:1022D00090932D0380932C0320912C0330912D0398
:1022E00080913C0390913D032817390719F00E9413
:1022F000B40BF2CF80E00E94A60910922903D0CD42
:10230000B0922603A092250380913E3390913F33F3
:1023100090933D0380933C0310922803109227036F
:1023200081E080932403B0922303A0922203B8CDCE
:102330000E946304E0913003F091310310818FEB30
:10234000810F8A3108F090C03196F0933103E09309
:1023500030030E946304E0913003F09131038081E7
:102360008A3019F08A3309F07FC080913003909150
:10237000310390932103809320038FE30E94970AF7
:102380000E942A0480913C0390913D030296909311
:102390003103809330030E94630410922A030E9449
:1023A000730D20912A032111E0CF212F30E0215419
:1023B0003048220F331F4091360350913703240FCA
:1023C000351FD9018D939C93809120039091210317
:1023D0009093310380933003ADC00E946304E09179
:1023E0003003F091310390808FEB890D8A31E0F555
:1023F0003196F0933103E09330030E946304E0913F
:102400003003F091310380818D3371F53196F09373
:102410003103E09330030E94630410922A030E9468
:10242000730D6C0180912A0381111EC081E792E037
:102430000E949D0480912B03811116C00E94730D90
:102440007C0180912A0381110FC08CE692E00E94EA
:102450009D0480912B03811127C00E94730D8C0174
:1024600080912A03882311F181E293E00E94690B95
:102470008091340390913503009799F0E0913003F7
:10248000F091310310811A3009F0608290932D038E
:1024900080932C030E94B40BE0913003F091310340
:1024A00010830E94910A0ACD01E010E00E946304AB
:1024B0004091300350913103FA0180818A3011F04C
:1024C0008A3391F690912A039111E4CD8A3009F074
:1024D000E1CDE0913A03F0913B03CF010A962091C0
:1024E0003803309139038217930708F4D6CD3A9711
:1024F000F0933B03E0933A03892D90E08154904898
:10250000880F991F2091360330913703820F931F54
:10251000DC01CD92DC92B6E4B0839182F382E28258
:10252000158304835187408780913403909135034C
:10253000978386838091300390913103FC0101964B
:1025400020812A33D9F3F0933103E09330030E94C2
:102550006304E0913003F091310380818A3009F007
:10256000A8CDE0913403F0913503309709F4A6CC5F
:1025700082818E0F9F2F911DAFCC10922A030E9453
:10258000730D90932F0380932E0380912A03811162
:1025900081CDA0913003B09131038C918A3009F044
:1025A00079CDE0913A03F0913B03CF01059620915C
:1025B0003803309139038217930708F46ECD3597AD
:1025C000F0933B03E0933A0327E42083B483A3838F
:1025D000809134039091350392838183EBCD0E94E7
:1025E0006304E0913003F0913103808181548A319A
:1025F00008F050CD3196F0933103E09330030E9400
:102600006304E0913003F091310380818A3319F043
:102610008A3009F029CF20913A0330913B0330935F
:102620001F0320931E03A0913003B0913103F901E1
:10263000119743E3ED33F40708F028CD8081863409
:10264000F1F0873409F028CC1A30B9F4F0931F0365
:10265000E0931E038181928190933503809334032C
:102660008381948190933103809330032B5F3F4F9C
:1026700030933B0320933A035DCF3596DACF153084
:1026800009F044C08C9190E04181042E000C550B60
:1026900084179507D9F5F0931F03E0931E03815427
:1026A0009048880F991FA0913603B0913703A80F67
:1026B000B91F2D913C91119784819581280F391F65
:1026C0002D933C9384819581181619065CF48281C0
:1026D0009381821793076CF43A96F0933B03E0934F
:1026E0003A0328CF892BC1F38281938128173907B8
:1026F0009CF380859185909331038093300386818C
:102700009781909335038093340314CF3A9691CFF9
:10271000E0913003F091310300818FEB800F8A311B
:1027200008F0B8CC10E001541048000F111F809140
:10273000360390913703080F191F3196F093310338
:10274000E09330030E946304E0913003F091310381
:1027500080818D3309F088CE3196F0933103E09378
:1027600030030E94630410922A030E94730D9C019F
:1027700080912A03811178CEE0913003F0913103EA
:1027800090819A3019F09A3309F06ECED8012D93CA
:102790003C93D0CE10922A030E94730D80912A039D
:1027A000811162CE0E946304E0913003F091310305
:1027B00080818C3209F058CE3196F0933103E0934A
:1027C00030030E94630410922A030E94730D8091CB
:1027D0002A03811149CEE0913003F09131038081C9
:1027E0008A3009F4B4CE8A3309F4A4CE3DCE0E94D7
:1027F000730490932F0380932E03E0913003F091A4
:10280000310380818A3009F02FCE0E9449049093D1
:102810002D0380932C0301E010E0F12CE12C20919A
:102820002C0330912D0380913C0390913D03281798
:10283000390709F435CB0E94B40BBFEFEB1AFB0A42
:10284000E7E0EE16F10459F70115110541F30E9476
:1028500018078823E1F321E090E0803209F420E0BA
:10286000022F192FDACFE0913003F09131038081EC
:102870008A3341F40E94910A809130039091310390
:102880000196A6CD8A3009F46CCE0E946304E091D3
:102890003003F09131031081123211F0173251F4EC
:1028A0003196F0933103E093300381911817C1F012
:1028B0008A30D9F7E0913003F09131038081823280
:1028C00009F4D2CD873209F4CFCD10922A030E94A9
:1028D000730D20912A032111C7CD0E947C0B18C0D3
:1028E000E0913003F09131038081181761F00E946C
:1028F000A6098091300390913103019690933103A2
:1029000080933003EDCF3196F0933103E0933003A1
:10291000E0913003F091310380818C3231F43196B3
:10292000F0933103E0933003B0CF8B3361F48181B6
:102930008A3019F08A3309F097CD3196F09331033C
:10294000E0933003F7CD8A3019F08A3309F08CCD4B
:102950000E94910AEFCD8091360390913703209128
:102960003C0330913D03821B930B0E947C0B83E55B
:1029700093E00E94780B80E090E10E947C0B8EE354
:1029800093E00E94780B10E000E0C8010E944C1711
:102990000F5F1F4F0115F0E11F0711F08111F5CFF7
:1029A00081E090E1801B910B0E947C0B87E592E017
:1029B0000E94780BBFCD80917A00806480937A006A
:1029C00080917A0086FDFCCF20917800909179006B
:1029D000892F90E0982F8827820F911D46E09C0157
:1029E000429FC001439F900D11240E947C0B8FE4F5
:1029F00092E0DECF0E9481099DCD10922A030E94B1
:102A0000730D90931D0380931C038A30910508F089
:102A10002BCD20912A03211127CD20E030E3DC01CA
:102A20000E94E2176B017C010E946F05C701B6018D
:102A3000705F8F4F9F4F0E946F05C701B601705E98
:102A40008F4F9F4F0E946F0582E080932903C092B1
:102A50001803D0921903E0921A03F0921B030E940C
:102A6000490490932D0380932C0320912C033091E3
:102A70002D0380913C0390913D032817390709F4F9
:102A800039CC0E94B40BF1CF10922A030E94730D2F
:102A900090931D0380931C038A30910508F0E4CCC9
:102AA00020912A032111E0CC20913E3330913F3315
:102AB00030933D0320933C0320E030E3DC010E948F
:102AC000E217609318037093190380931A0390938D
:102AD0001B03109217031092160382E022CC0E946F
:102AE00018078823E1F326CDD12CC12C10922A039C
:102AF0000E94730D7C0180912A038111B5CC0E9444
:102B00006304E0913003F091310380818C3209F04D
:102B1000ABCC3196F0933103E09330030E94630411
:102B200083E492E00E949D0420912B032430F1F075
:102B300091E080E0223008F090E0092F182F61E04A
:102B40008E2D0E948403602FCD2841F461E08E2DEC
:102B50000E9484030115110599F460E08E2D0E94F6
:102B60005603E8CCCC24C394D12CC0CF10922A03B6
:102B70000E94730D8C0180912A03882301F374CC89
:102B80000F3F110511F461E0E9CFF701FF27E15E86
:102B9000FD4FE491E150E23108F0AEC0F0E0ED52BB
:102BA000FA4E0C94D917E515EA15EF15F915031629
:102BB0007C160D1615161D16271631163B164A16CD
:102BC00054167C165E166816721684B5806884BD2D
:102BD00007BDB0CC84B5806284BD08BDABCC80910C
:102BE00080008068809380001093890000938800A3
:102BF000A1CC8091800080628093800010938B0034
:102C000000938A0097CC8091800088608093800038
:102C100010938D0000938C008DCC8091B000806863
:102C20008093B0000093B30085CC8091B0008062A7
:102C30008093B0000093B4007DCC809190008068B8
:102C400080939000109399000093980073CC80912A
:102C5000900080628093900010939B0000939A00F4
:102C600069CC8091900088608093900010939D00C3
:102C700000939C005FCC8091A00080688093A000AE
:102C80008091A0008F7B8093A0001093A9000093F7
:102C9000A80050CC8091A00080628093A000109387
:102CA000AB000093AA0046CC8091A000886080937E
:102CB000A0001093AD000093AC003CCC80912001AB
:102CC000806880932001109329010093280132CC61
:102CD0008091200180628093200110932B0100934A
:102CE0002A0128CC809120018860809320011093D4
:102CF0002D0100932C011ECC003811050CF043CFA0
:102D00002CCFB0922603A09225038DE293E00E947F
:102D1000780BD4C810922A030E94730D20912A03C5
:102D20002111A2CBBC01990F880B990B611571057C
:102D30008105910509F4FECB0E943A17FBCB8F92D7
:102D40009F92AF92BF92CF92DF92EF92FF92CF937A
:102D5000DF93EC01688179818A819B81611571051E
:102D60008105910521F464E279ED8BE597E02DE191
:102D700033EF41E050E00E94621749015A019B0184
:102D8000AC01A7EAB1E40E9481176B017C01ACEEB3
:102D9000B4EFA50194010E948F17C60ED71EE81E3E
:102DA000F91EF7FE06C081E0C81AD108E10880E8E4
:102DB000F80AC882D982EA82FB82C701B6019F77EE
:102DC000DF91CF91FF90EF90DF90CF90BF90AF90C9
:102DD0009F908F9008958F929F92AF92BF92CF92C3
:102DE000DF92EF92FF926091B6027091B7028091EC
:102DF000B8029091B902611571058105910521F420
:102E000064E279ED8BE597E02DE133EF41E050E0AE
:102E10000E94621749015A019B01AC01A7EAB1E483
:102E20000E9481176B017C01ACEEB4EFA501940107
:102E30000E948F17C60ED71EE81EF91EF7FE06C0A9
:102E400081E0C81AD108E10880E8F80AC092B60209
:102E5000D092B702E092B802F092B902C701B6016F
:102E60009F77FF90EF90DF90CF90BF90AF909F90B3
:102E70008F9008956093B6027093B7028093B80262
:102E80009093B9020895FB01DC0102C005900D92F8
:102E900041505040D8F70895F999FECF92BD81BDB9
:102EA000F89A992780B50895262FF999FECF1FBA71
:102EB00092BD81BD20BD0FB6F894FA9AF99A0FBE63
:102EC00001960895052E97FB1EF400940E94791731
:102ED00057FD07D00E94941707FC03D04EF40C94C2
:102EE000791750954095309521953F4F4F4F5F4F43
:102EF000089590958095709561957F4F8F4F9F4F66
:102F000008950E94B617A59F900DB49F900DA49FA1
:102F1000800D911D11240895B7FF0C9481170E9414
:102F20008117821B930B0895A1E21A2EAA1BBB1BCB
:102F3000FD010DC0AA1FBB1FEE1FFF1FA217B30785
:102F4000E407F50720F0A21BB30BE40BF50B661F9B
:102F5000771F881F991F1A9469F76095709580955F
:102F600090959B01AC01BD01CF010895A29FB001D6
:102F7000B39FC001A39F700D811D1124911DB29FAD
:102F8000700D811D1124911D089597FB072E16F4D5
:102F9000009407D077FD09D00E94E91707FC05D0FF
:102FA0003EF4909581959F4F0895709561957F4F60
:102FB0000895EE0FFF1F0024001C0BBE0790F69132
:102FC000E02D09940E94B617B7FF0895821B930B5A
:102FD0000895AA1BBB1B51E107C0AA1FBB1FA61760
:102FE000B70710F0A61BB70B881F991F5A95A9F7B2
:102FF00080959095BC01CD0108950F931F93CF93B9
:10300000DF93CDB7DEB72E970FB6F894DEBF0FBEB5
:10301000CDBF0D891E898F89988D26E02C831A8358
:10302000098397FF02C080E090E801979E838D831B
:10303000AE01455E5F4F698D7A8DCE0101960E948B
:103040003A184D815E8157FD0AC02F81388542179D
:1030500053070CF49A01020F131FF80110822E96E9
:103060000FB6F894DEBF0FBECDBFDF91CF911F9199
:103070000F9108952F923F924F925F926F927F929D
:103080008F929F92AF92BF92CF92DF92EF92FF9278
:103090000F931F93CF93DF93CDB7DEB72B970FB668
:1030A000F894DEBF0FBECDBF7C013B018A01FC015D
:1030B00017821682838181FFDDC1CE0101965C01FA
:1030C000F7019381F30193FD859193FF81913F0176
:1030D000882309F453C1853239F493FD859193FF18
:1030E00081913F01853229F4B70190E00E94531A83
:1030F000E7CF912C212C312CFFE1F31538F08B32E6
:1031000011F190F4803209F1833229F137FC3CC08F
:1031100020ED280F2A3050F536FE20C08AE0989E18
:10312000200D1124922E06C08D3291F0803371F75C
:10313000689430F8F30193FD859193FF81913F01ED
:103140008111DACF21C0689431F8689432F8F2CF57
:10315000689433F8EFCF689434F8ECCFEAE02E9E11
:10316000200D1124222E689435F8E4CF8E3229F4F4
:1031700036FC04C1689436F8DDCF8C3619F46894B7
:1031800037F8D8CF8836B1F2982F9F7D9554933079
:10319000E0F08336A1F18337C1F1833509F063C0D4
:1031A0002801F2E04F0E511CF801C080D180692D3A
:1031B00070E036FC02C06FEF7FEFC6010E943D1A3F
:1031C0004C01689437F882010AC00C5F1F4FFFE37F
:1031D000F98388248394912C6501E89437F833FEB1
:1031E0002DC0522C8114910471F5552009F468CF3B
:1031F000B70180E290E00E94531A5A94F6CFF8018A
:10320000808189830E5F1F4FE4CF2801F2E04F0ECB
:10321000511CF801C080D180692D70E036FC02C0DD
:103220006FEF7FEFC6010E94481A4C018201D5CF93
:10323000B70180E290E00E94531A2A9428141904DE
:1032400009F0B0F7CECFF60137FC859137FE8191BA
:103250006F01B70190E00E94531A51105A94F1E0A7
:103260008F1A9108BFCF843619F0893609F077C0DC
:10327000F80137FE6BC060817181828193810C5FA0
:103280001F4FF32DFF763F2E97FF09C09095809535
:10329000709561957F4F8F4F9F4F689437F82AE064
:1032A00030E0A5010E94831AC82ECA188C2C432C2A
:1032B00036FE0CC0E89440F8C91440F434FE05C052
:1032C00032FC03C0F32DFE7E4F2E892C44FEAAC093
:1032D000FE01EC0DF11D8081803309F09CC0242D8E
:1032E000297E422E842D8870582E43FCAAC040FEB1
:1032F000A4C09C2C821418F42C0C922C981844FE18
:10330000A6C0B70180E390E00E94531A42FE09C0B4
:1033100088E790E041FE02C088E590E0B7010E9496
:10332000531AC91408F49FC0CA94D12C9FEFC91A2C
:10333000D90ACA0CDB1CF60182916F01B70190E03B
:103340000E94531AAC14BD04B1F74FCF6081718154
:10335000072E000C880B990B0E5F1F4F92CFD32CBA
:10336000E894D4F82AE030E08537E1F1232D297F75
:10337000D22E8F36A9F1F0F4883551F1F70186810C
:1033800097812B960FB6F894DEBF0FBECDBFDF91AD
:10339000CF911F910F91FF90EF90DF90CF90BF9052
:1033A000AF909F908F907F906F905F904F903F90E5
:1033B0002F900895803749F0883701F7D4FE02C076
:1033C0006894D2F820E130E00DC06894D4F8F6CFCC
:1033D00034FE03C0822F8660D82E20E132E002C086
:1033E00028E030E0F801D7FE0FC060817181828152
:1033F00093810C5F1F4FA5010E94831AC82ECA1823
:103400003D2CE89437F852CF6081718190E080E0E4
:103410000E5F1F4FF0CF42FC02C0839463CF8394B2
:10342000839460CF842D867809F45CCFF6CFB70102
:1034300080E290E00E94531A83948214C0F3512CCE
:103440005ECF522C5818821408F459CFF8CF842D2F
:10345000867809F466CF8BE241FE80E247FC8DE27C
:10346000B70190E05CCFB70180E390E00E94531A6F
:103470009A9457CF8FEF9FEF84CFFC010590615056
:1034800070400110D8F7809590958E0F9F1F08957A
:10349000FC016150704001900110D8F78095909523
:1034A0008E0F9F1F08950F931F93CF93DF93182FB5
:1034B000092FEB018B8181FD09C01FEF0FEF812FD9
:1034C000902FDF91CF911F910F91089582FF14C02B
:1034D0002E813F818C819D81281739073CF4E8813A
:1034E000F981CF0101969983888310838E819F8112
:1034F00001969F838E83E3CFE885F985812F099517
:10350000892BA1F3DACFFA01AA27283051F1203113
:1035100081F1E8946F936E7F6E5F7F4F8F4F9F4F67
:10352000AF4FB1E03ED0B4E03CD0670F781F891FA9
:103530009A1FA11D680F791F8A1F911DA11D6A0F77
:10354000711D811D911DA11D20D009F468943F912A
:103550002AE0269F11243019305D3193DEF6CF0129
:103560000895462F4770405D4193B3E00FD0C9F7EF
:10357000F6CF462F4F70405D4A3318F0495D31FD5C
:103580004052419302D0A9F7EACFB4E0A6959795AF
:10359000879577956795BA95C9F700976105710585
:1035A00008959B01AC010A2E0694579547953795CF
:1035B0002795BA95C9F7620F731F841F951FA01D29
:0635C0000895F894FFCF0E
:1035C60021323324253627222829717765727479AA
:1035D600753B5B5D3D2B2D6667686A3A3F08002A9E
:1035E6002F6376626E050004000D0000013C3E6DFF
:1035F6000203F0F1F2F3F4F5F6F7F8F93132333469
:1036060035363738393071776572747975696F7008
:103616006173646667686A6B6C0D007A78637662BC
:103626006E050004000D1B00202C2E6D0203F0F128
:10363600F2F3F4F5F6F7F8F9313233343536373834
:10364600393051574552545955494F5041534446C4
:1036560047484A4B4C08005A584356424E05000408
:10366600000D00005F2C2E4D0203F0F1F2F3F4F58D
:10367600F6F7F8F9900001000000E4F1F3E2E1D773
:10368600A0A5D5D4E6B7B6B5B4E0202020202020EA
:103696002020202020202020202020202020202024
:0E36A60020202020202020202020002563004E
:00000001FF
